{
  "_format": "hh-sol-artifact-1",
  "contractName": "AchievementBadge",
  "sourceName": "contracts/AchievementBadge.sol",
  "abi": [
    {
      "inputs": [],
      "stateMutability": "nonpayable",
      "type": "constructor"
    },
    {
      "inputs": [
        {
          "internalType": "address",
          "name": "sender",
          "type": "address"
        },
        {
          "internalType": "uint256",
          "name": "tokenId",
          "type": "uint256"
        },
        {
          "internalType": "address",
          "name": "owner",
          "type": "address"
        }
      ],
      "name": "ERC721IncorrectOwner",
      "type": "error"
    },
    {
      "inputs": [
        {
          "internalType": "address",
          "name": "operator",
          "type": "address"
        },
        {
          "internalType": "uint256",
          "name": "tokenId",
          "type": "uint256"
        }
      ],
      "name": "ERC721InsufficientApproval",
      "type": "error"
    },
    {
      "inputs": [
        {
          "internalType": "address",
          "name": "approver",
          "type": "address"
        }
      ],
      "name": "ERC721InvalidApprover",
      "type": "error"
    },
    {
      "inputs": [
        {
          "internalType": "address",
          "name": "operator",
          "type": "address"
        }
      ],
      "name": "ERC721InvalidOperator",
      "type": "error"
    },
    {
      "inputs": [
        {
          "internalType": "address",
          "name": "owner",
          "type": "address"
        }
      ],
      "name": "ERC721InvalidOwner",
      "type": "error"
    },
    {
      "inputs": [
        {
          "internalType": "address",
          "name": "receiver",
          "type": "address"
        }
      ],
      "name": "ERC721InvalidReceiver",
      "type": "error"
    },
    {
      "inputs": [
        {
          "internalType": "address",
          "name": "sender",
          "type": "address"
        }
      ],
      "name": "ERC721InvalidSender",
      "type": "error"
    },
    {
      "inputs": [
        {
          "internalType": "uint256",
          "name": "tokenId",
          "type": "uint256"
        }
      ],
      "name": "ERC721NonexistentToken",
      "type": "error"
    },
    {
      "inputs": [
        {
          "internalType": "address",
          "name": "owner",
          "type": "address"
        }
      ],
      "name": "OwnableInvalidOwner",
      "type": "error"
    },
    {
      "inputs": [
        {
          "internalType": "address",
          "name": "account",
          "type": "address"
        }
      ],
      "name": "OwnableUnauthorizedAccount",
      "type": "error"
    },
    {
      "anonymous": false,
      "inputs": [
        {
          "indexed": true,
          "internalType": "address",
          "name": "owner",
          "type": "address"
        },
        {
          "indexed": true,
          "internalType": "address",
          "name": "approved",
          "type": "address"
        },
        {
          "indexed": true,
          "internalType": "uint256",
          "name": "tokenId",
          "type": "uint256"
        }
      ],
      "name": "Approval",
      "type": "event"
    },
    {
      "anonymous": false,
      "inputs": [
        {
          "indexed": true,
          "internalType": "address",
          "name": "owner",
          "type": "address"
        },
        {
          "indexed": true,
          "internalType": "address",
          "name": "operator",
          "type": "address"
        },
        {
          "indexed": false,
          "internalType": "bool",
          "name": "approved",
          "type": "bool"
        }
      ],
      "name": "ApprovalForAll",
      "type": "event"
    },
    {
      "anonymous": false,
      "inputs": [
        {
          "indexed": true,
          "internalType": "address",
          "name": "recipient",
          "type": "address"
        },
        {
          "indexed": true,
          "internalType": "uint256",
          "name": "tokenId",
          "type": "uint256"
        },
        {
          "indexed": true,
          "internalType": "uint256",
          "name": "badgeTypeId",
          "type": "uint256"
        }
      ],
      "name": "BadgeMinted",
      "type": "event"
    },
    {
      "anonymous": false,
      "inputs": [
        {
          "indexed": true,
          "internalType": "uint256",
          "name": "badgeTypeId",
          "type": "uint256"
        },
        {
          "indexed": false,
          "internalType": "string",
          "name": "name",
          "type": "string"
        },
        {
          "indexed": false,
          "internalType": "string",
          "name": "description",
          "type": "string"
        }
      ],
      "name": "BadgeTypeAdded",
      "type": "event"
    },
    {
      "anonymous": false,
      "inputs": [
        {
          "indexed": true,
          "internalType": "address",
          "name": "previousOwner",
          "type": "address"
        },
        {
          "indexed": true,
          "internalType": "address",
          "name": "newOwner",
          "type": "address"
        }
      ],
      "name": "OwnershipTransferred",
      "type": "event"
    },
    {
      "anonymous": false,
      "inputs": [
        {
          "indexed": true,
          "internalType": "address",
          "name": "from",
          "type": "address"
        },
        {
          "indexed": true,
          "internalType": "address",
          "name": "to",
          "type": "address"
        },
        {
          "indexed": true,
          "internalType": "uint256",
          "name": "tokenId",
          "type": "uint256"
        }
      ],
      "name": "Transfer",
      "type": "event"
    },
    {
      "inputs": [
        {
          "internalType": "uint256",
          "name": "_badgeTypeId",
          "type": "uint256"
        },
        {
          "internalType": "string",
          "name": "_name",
          "type": "string"
        },
        {
          "internalType": "string",
          "name": "_description",
          "type": "string"
        },
        {
          "internalType": "string",
          "name": "_imageURI",
          "type": "string"
        }
      ],
      "name": "addBadgeType",
      "outputs": [],
      "stateMutability": "nonpayable",
      "type": "function"
    },
    {
      "inputs": [
        {
          "internalType": "address",
          "name": "to",
          "type": "address"
        },
        {
          "internalType": "uint256",
          "name": "tokenId",
          "type": "uint256"
        }
      ],
      "name": "approve",
      "outputs": [],
      "stateMutability": "nonpayable",
      "type": "function"
    },
    {
      "inputs": [
        {
          "internalType": "uint256",
          "name": "",
          "type": "uint256"
        }
      ],
      "name": "badgeTypes",
      "outputs": [
        {
          "internalType": "string",
          "name": "name",
          "type": "string"
        },
        {
          "internalType": "string",
          "name": "description",
          "type": "string"
        },
        {
          "internalType": "string",
          "name": "imageURI",
          "type": "string"
        },
        {
          "internalType": "bool",
          "name": "exists",
          "type": "bool"
        }
      ],
      "stateMutability": "view",
      "type": "function"
    },
    {
      "inputs": [
        {
          "internalType": "address",
          "name": "owner",
          "type": "address"
        }
      ],
      "name": "balanceOf",
      "outputs": [
        {
          "internalType": "uint256",
          "name": "",
          "type": "uint256"
        }
      ],
      "stateMutability": "view",
      "type": "function"
    },
    {
      "inputs": [
        {
          "internalType": "uint256",
          "name": "tokenId",
          "type": "uint256"
        }
      ],
      "name": "getApproved",
      "outputs": [
        {
          "internalType": "address",
          "name": "",
          "type": "address"
        }
      ],
      "stateMutability": "view",
      "type": "function"
    },
    {
      "inputs": [
        {
          "internalType": "uint256",
          "name": "_tokenId",
          "type": "uint256"
        }
      ],
      "name": "getBadgeMetadata",
      "outputs": [
        {
          "components": [
            {
              "internalType": "uint256",
              "name": "badgeTypeId",
              "type": "uint256"
            },
            {
              "internalType": "uint256",
              "name": "mintedAt",
              "type": "uint256"
            },
            {
              "internalType": "address",
              "name": "recipient",
              "type": "address"
            }
          ],
          "internalType": "struct AchievementBadge.BadgeMetadata",
          "name": "",
          "type": "tuple"
        }
      ],
      "stateMutability": "view",
      "type": "function"
    },
    {
      "inputs": [
        {
          "internalType": "uint256",
          "name": "_badgeTypeId",
          "type": "uint256"
        }
      ],
      "name": "getBadgeType",
      "outputs": [
        {
          "components": [
            {
              "internalType": "string",
              "name": "name",
              "type": "string"
            },
            {
              "internalType": "string",
              "name": "description",
              "type": "string"
            },
            {
              "internalType": "string",
              "name": "imageURI",
              "type": "string"
            },
            {
              "internalType": "bool",
              "name": "exists",
              "type": "bool"
            }
          ],
          "internalType": "struct AchievementBadge.BadgeType",
          "name": "",
          "type": "tuple"
        }
      ],
      "stateMutability": "view",
      "type": "function"
    },
    {
      "inputs": [
        {
          "internalType": "address",
          "name": "_user",
          "type": "address"
        }
      ],
      "name": "getUserBadges",
      "outputs": [
        {
          "internalType": "uint256[]",
          "name": "",
          "type": "uint256[]"
        }
      ],
      "stateMutability": "view",
      "type": "function"
    },
    {
      "inputs": [
        {
          "internalType": "address",
          "name": "_user",
          "type": "address"
        },
        {
          "internalType": "uint256",
          "name": "_badgeTypeId",
          "type": "uint256"
        }
      ],
      "name": "hasBadge",
      "outputs": [
        {
          "internalType": "bool",
          "name": "",
          "type": "bool"
        }
      ],
      "stateMutability": "view",
      "type": "function"
    },
    {
      "inputs": [
        {
          "internalType": "address",
          "name": "owner",
          "type": "address"
        },
        {
          "internalType": "address",
          "name": "operator",
          "type": "address"
        }
      ],
      "name": "isApprovedForAll",
      "outputs": [
        {
          "internalType": "bool",
          "name": "",
          "type": "bool"
        }
      ],
      "stateMutability": "view",
      "type": "function"
    },
    {
      "inputs": [
        {
          "internalType": "address",
          "name": "_recipient",
          "type": "address"
        },
        {
          "internalType": "uint256",
          "name": "_badgeTypeId",
          "type": "uint256"
        }
      ],
      "name": "mintBadge",
      "outputs": [
        {
          "internalType": "uint256",
          "name": "",
          "type": "uint256"
        }
      ],
      "stateMutability": "nonpayable",
      "type": "function"
    },
    {
      "inputs": [],
      "name": "name",
      "outputs": [
        {
          "internalType": "string",
          "name": "",
          "type": "string"
        }
      ],
      "stateMutability": "view",
      "type": "function"
    },
    {
      "inputs": [],
      "name": "owner",
      "outputs": [
        {
          "internalType": "address",
          "name": "",
          "type": "address"
        }
      ],
      "stateMutability": "view",
      "type": "function"
    },
    {
      "inputs": [
        {
          "internalType": "uint256",
          "name": "tokenId",
          "type": "uint256"
        }
      ],
      "name": "ownerOf",
      "outputs": [
        {
          "internalType": "address",
          "name": "",
          "type": "address"
        }
      ],
      "stateMutability": "view",
      "type": "function"
    },
    {
      "inputs": [],
      "name": "renounceOwnership",
      "outputs": [],
      "stateMutability": "nonpayable",
      "type": "function"
    },
    {
      "inputs": [
        {
          "internalType": "address",
          "name": "from",
          "type": "address"
        },
        {
          "internalType": "address",
          "name": "to",
          "type": "address"
        },
        {
          "internalType": "uint256",
          "name": "tokenId",
          "type": "uint256"
        }
      ],
      "name": "safeTransferFrom",
      "outputs": [],
      "stateMutability": "nonpayable",
      "type": "function"
    },
    {
      "inputs": [
        {
          "internalType": "address",
          "name": "from",
          "type": "address"
        },
        {
          "internalType": "address",
          "name": "to",
          "type": "address"
        },
        {
          "internalType": "uint256",
          "name": "tokenId",
          "type": "uint256"
        },
        {
          "internalType": "bytes",
          "name": "data",
          "type": "bytes"
        }
      ],
      "name": "safeTransferFrom",
      "outputs": [],
      "stateMutability": "nonpayable",
      "type": "function"
    },
    {
      "inputs": [
        {
          "internalType": "address",
          "name": "operator",
          "type": "address"
        },
        {
          "internalType": "bool",
          "name": "approved",
          "type": "bool"
        }
      ],
      "name": "setApprovalForAll",
      "outputs": [],
      "stateMutability": "nonpayable",
      "type": "function"
    },
    {
      "inputs": [
        {
          "internalType": "bytes4",
          "name": "interfaceId",
          "type": "bytes4"
        }
      ],
      "name": "supportsInterface",
      "outputs": [
        {
          "internalType": "bool",
          "name": "",
          "type": "bool"
        }
      ],
      "stateMutability": "view",
      "type": "function"
    },
    {
      "inputs": [],
      "name": "symbol",
      "outputs": [
        {
          "internalType": "string",
          "name": "",
          "type": "string"
        }
      ],
      "stateMutability": "view",
      "type": "function"
    },
    {
      "inputs": [
        {
          "internalType": "uint256",
          "name": "",
          "type": "uint256"
        }
      ],
      "name": "tokenMetadata",
      "outputs": [
        {
          "internalType": "uint256",
          "name": "badgeTypeId",
          "type": "uint256"
        },
        {
          "internalType": "uint256",
          "name": "mintedAt",
          "type": "uint256"
        },
        {
          "internalType": "address",
          "name": "recipient",
          "type": "address"
        }
      ],
      "stateMutability": "view",
      "type": "function"
    },
    {
      "inputs": [
        {
          "internalType": "uint256",
          "name": "_tokenId",
          "type": "uint256"
        }
      ],
      "name": "tokenURI",
      "outputs": [
        {
          "internalType": "string",
          "name": "",
          "type": "string"
        }
      ],
      "stateMutability": "view",
      "type": "function"
    },
    {
      "inputs": [
        {
          "internalType": "address",
          "name": "from",
          "type": "address"
        },
        {
          "internalType": "address",
          "name": "to",
          "type": "address"
        },
        {
          "internalType": "uint256",
          "name": "tokenId",
          "type": "uint256"
        }
      ],
      "name": "transferFrom",
      "outputs": [],
      "stateMutability": "nonpayable",
      "type": "function"
    },
    {
      "inputs": [
        {
          "internalType": "address",
          "name": "newOwner",
          "type": "address"
        }
      ],
      "name": "transferOwnership",
      "outputs": [],
      "stateMutability": "nonpayable",
      "type": "function"
    },
    {
      "inputs": [
        {
          "internalType": "address",
          "name": "",
          "type": "address"
        },
        {
          "internalType": "uint256",
          "name": "",
          "type": "uint256"
        }
      ],
      "name": "userBadges",
      "outputs": [
        {
          "internalType": "bool",
          "name": "",
          "type": "bool"
        }
      ],
      "stateMutability": "view",
      "type": "function"
    }
  ],
  "bytecode": "0x608034620003ab5760406001600160401b0382820181811184821017620003955782526020928381527f5374617274557020517565737420416368696576656d656e74204261646765738482015282519183830183811082821117620003955784526004928381526329a8a0a160e11b8682015282519082821162000380576000968754926001958685811c9516801562000375575b8386101462000362578190601f958681116200030f575b508390868311600114620002ab578b926200029f575b5050600019600383901b1c191690861b1788555b81519384116200028c5784548581811c9116801562000281575b828210146200026e57908184869594931162000217575b5080928411600114620001af57508792620001a3575b5050600019600383901b1c191690821b1790555b33156200018e575060068054336001600160a01b03198216811790925591519290916001600160a01b0316907f8be0079c531659141344cd1fd0a4f28419497f9722a3daafe3b4186f6b6457e09080a3611ae49081620003b18239f35b826024925191631e4fbdf760e01b8352820152fd5b0151905038806200011d565b9190859450601f198416858a52838a20938a905b828210620001fd5750508411620001e3575b505050811b01905562000131565b015160001960f88460031b161c19169055388080620001d5565b8484015186558897909501949384019390810190620001c3565b90919293508589528189208480870160051c82019284881062000264575b9187968992969594930160051c01915b8281106200025557505062000107565b8b815587965088910162000245565b9250819262000235565b634e487b7160e01b895260228752602489fd5b90607f1690620000f0565b634e487b7160e01b885260418652602488fd5b015190503880620000c2565b8b8052848c208994509190601f1984168d5b87828210620002f85750508411620002de575b505050811b018855620000d6565b015160001960f88460031b161c19169055388080620002d0565b8385015186558c97909501949384019301620002bd565b9091508a8052838b208680850160051c82019286861062000358575b918a91869594930160051c01915b82811062000349575050620000ac565b8d81558594508a910162000339565b925081926200032b565b634e487b7160e01b8a526022885260248afd5b94607f169462000095565b604185634e487b7160e01b6000525260246000fd5b634e487b7160e01b600052604160045260246000fd5b600080fdfe608080604052600436101561001357600080fd5b60003560e01c90816301ffc9a7146113c55750806306fdde031461131a578063081812fc146112dc578063095ea7b3146111f557806323b872dd146111de57806337c245fe1461107257806342842e0e146110395780634c6a70ce146105615780636352211e146110095780636914db6014610fbd57806370a0823114610f64578063715018a614610f075780638da5cb5b14610ede57806395d89b4114610dfb578063a22cb46514610d4d578063ae9abb7b14610cbb578063b88d4fde14610c5a578063c47c99151461073a578063c87b56dd1461065c578063d19b6106146105ae578063df91cc2314610561578063e0e5fc4c1461045c578063e42bff661461021b578063e985e9c5146101c55763f2fde38b1461013257600080fd5b346101c05760203660031901126101c05761014b611470565b610153611a82565b6001600160a01b039081169081156101a757600654826bffffffffffffffffffffffff60a01b821617600655167f8be0079c531659141344cd1fd0a4f28419497f9722a3daafe3b4186f6b6457e0600080a3005b604051631e4fbdf760e01b815260006004820152602490fd5b600080fd5b346101c05760403660031901126101c0576101de611470565b6101e6611486565b9060018060a01b03809116600052600560205260406000209116600052602052602060ff604060002054166040519015158152f35b346101c05760403660031901126101c057610234611470565b60243561023f611a82565b806000526020916008835261025e60ff600360406000200154166119fb565b6001600160a01b039081166000818152600985526040808220858352865290205490929060ff1661041757610294600754611814565b918260075583156103fe5782600052600285528060406000205416801515806103cb575b8560005260038752604060002060018154019055846000526002875284866040600020936bffffffffffffffffffffffff60a01b9482868254161790557fddf252ad1be2c89b69c2b068fc378daa952ba7f163c4a11628f55a4df523b3ef600080a46103b257846000526009865260406000208360005286526040600020600160ff198254161790556040519161034e83611526565b838352600287840193428552604081019488865287600052600a8a52604060002091518255516001820155019251169082541617905581604051937f7e6f783c7d2fd31e9979cbb09639e191e20de085caf64b2875d53ff862aa3baa600080a48152f35b6040516339e3563760e11b815260006004820152602490fd5b60008581526004602052604080822080546001600160a01b031916905583825260038952902080546000190190556102b8565b604051633250574960e11b815260006004820152602490fd5b60405162461bcd60e51b815260048101859052601b60248201527f5573657220616c726561647920686173207468697320626164676500000000006044820152606490fd5b346101c0576020806003193601126101c0576040516080916004356104808361150b565b6000606084818096528185820152816040820152015280600052600882526104b260ff600360406000200154166119fb565b600052600881526105546040600020604051936104ce8561150b565b6104d782611562565b85526104e560018301611562565b9084860191825261054461052e60ff600361050260028801611562565b9660408b01978852015416968389019715158852604051998a99828b5251918a015260a0890190611430565b925192601f1993848983030160408a0152611430565b9251918684030190860152611430565b9051151560808301520390f35b346101c05760403660031901126101c0576001600160a01b03610582611470565b1660005260096020526040600020602435600052602052602060ff604060002054166040519015158152f35b346101c05760203660031901126101c0576004356000604080516105d181611526565b82815282602082015201526106036105fe82600052600260205260018060a01b0360406000205416151590565b6119b8565b600052600a60205260606040600020600260405161062081611526565b82549283825260406001820154916020840192835260018060a01b03948591015416920191825260405193845251602084015251166040820152f35b346101c0576020806003193601126101c057600435600081815260026020526040902054610694906001600160a01b031615156119b8565b600052600a815260406000206040516106ac81611526565b6040825492838352600181015485840152600260018060a01b0391015416910152600052600881526040600020906040516106e68161150b565b6106ef83611562565b81526106fd60018401611562565b82820152606060ff600361071360028701611562565b958660408601520154161515910152610736604051928284938452830190611430565b0390f35b346101c05760803660031901126101c0576024356001600160401b0381116101c05761076a903690600401611659565b6044356001600160401b0381116101c057610789903690600401611659565b906064356001600160401b0381116101c0576107a9903690600401611659565b6107b1611a82565b600435600052600860205260ff60036040600020015416610c1557604051906107d98261150b565b828252836020830152604082015260016060820152600435600052600860205260406000209080518051906001600160401b038211610a7357819061081e85546114d1565b601f8111610bc5575b50602090601f8311600114610b5f57600092610b54575b50508160011b916000199060031b1c19161782555b60208101518051906001600160401b038211610a7357819061087860018601546114d1565b601f8111610b01575b50602090601f8311600114610a9457600092610a89575b50508160011b916000199060031b1c19161760018301555b60408101518051906001600160401b038211610a73576108d360028501546114d1565b601f8111610a28575b50602090601f831160011461098b5760607ffa2fdedf558c825bc505ed2c5c0d7d4318465694a3299e7e5b7ecda4ddc7498e9694846109539561096a9895600395600092610980575b50508160011b9160001990861b1c19161760028501555b0151151591019060ff801983541691151516179055565b61097b604051928392604084526040840190611430565b828103602084015260043595611430565b0390a2005b015190508b80610925565b906002850160005260206000209160005b601f1985168110610a1057507ffa2fdedf558c825bc505ed2c5c0d7d4318465694a3299e7e5b7ecda4ddc7498e969460018561096a989560039560609561095399601f198116106109f8575b505050811b01600285015561093c565b015160001983881b60f8161c191690558b80806109e8565b9192602060018192868501518155019401920161099c565b600285016000526020600020601f840160051c81019160208510610a69575b601f0160051c01905b818110610a5d57506108dc565b60008155600101610a50565b9091508190610a47565b634e487b7160e01b600052604160045260246000fd5b015190508680610898565b600186016000908152602081209350601f198516905b818110610ae95750908460019594939210610ad0575b505050811b0160018301556108b0565b015160001960f88460031b161c19169055868080610ac0565b92936020600181928786015181550195019301610aaa565b909150600185016000526020600020601f840160051c810160208510610b4d575b90849392915b601f830160051c82018110610b3e575050610881565b60008155859450600101610b28565b5080610b22565b01519050868061083e565b6000868152602081209350601f198516905b818110610bad5750908460019594939210610b94575b505050811b018255610853565b015160001960f88460031b161c19169055868080610b87565b92936020600181928786015181550195019301610b71565b909150846000526020600020601f840160051c810160208510610c0e575b90849392915b601f830160051c82018110610bff575050610827565b60008155859450600101610be9565b5080610be3565b60405162461bcd60e51b815260206004820152601960248201527f4261646765207479706520616c726561647920657869737473000000000000006044820152606490fd5b346101c05760803660031901126101c057610c73611470565b610c7b611486565b606435916001600160401b0383116101c057366023840112156101c057610caf610cb9933690602481600401359101611622565b9160443591611863565b005b346101c05760203660031901126101c0576004356000526008602052610d256040600020610ce881611562565b90610d41610cf860018301611562565b91610d3360ff6003610d0c60028501611562565b9301541693604051968796608088526080880190611430565b908682036020880152611430565b908482036040860152611430565b90151560608301520390f35b346101c05760403660031901126101c057610d66611470565b60243590811515908183036101c0576001600160a01b0316918215610de257610db49033600052600560205260406000208460005260205260406000209060ff801983541691151516179055565b6040519081527f17307eab39ab6107e8899845ad3d59bd9653f200f220920489ca2b5937696c3160203392a3005b604051630b61174360e31b815260048101849052602490fd5b346101c05760003660031901126101c057604051600060018260015492610e21846114d1565b9283835260209485600182169182600014610ebe575050600114610e61575b50610e4d92500383611541565b610736604051928284938452830190611430565b84915060016000527fb10e2d527612073b26eecdfd717e6a320cf44b4afac2b0732d9fcbe2b7fa0cf6906000915b858310610ea6575050610e4d935082010185610e40565b80548389018501528794508693909201918101610e8f565b60ff191685820152610e4d95151560051b8501019250879150610e409050565b346101c05760003660031901126101c0576006546040516001600160a01b039091168152602090f35b346101c05760003660031901126101c057610f20611a82565b600680546001600160a01b031981169091556000906001600160a01b03167f8be0079c531659141344cd1fd0a4f28419497f9722a3daafe3b4186f6b6457e08280a3005b346101c05760203660031901126101c0576001600160a01b03610f85611470565b168015610fa45760005260036020526020604060002054604051908152f35b6040516322718ad960e21b815260006004820152602490fd5b346101c05760203660031901126101c057600435600052600a60205260606040600020805490600181015490600260018060a01b03910154169060405192835260208301526040820152f35b346101c05760203660031901126101c0576020611027600435611a47565b6040516001600160a01b039091168152f35b346101c0576110473661149c565b6040519160208301938385106001600160401b03861117610a7357610cb99460405260008452611863565b346101c0576020806003193601126101c05761108c611470565b60405190610ca082018281106001600160401b03821117610a73576040526064808352610c80368585013760009160015b82811115611164575050506110d1816117fd565b906110df6040519283611541565b8082526110eb816117fd565b8285019390601f190136853760005b8281106111455750505090604051928392818401908285525180915260408401929160005b82811061112e57505050500390f35b83518552869550938101939281019260010161111f565b8061115260019284611839565b5161115d8287611839565b52016110fa565b806000526008865260ff806003604060002001541690816111b5575b50611194575b61118f90611814565b6110bd565b926111ad81856111a761118f9489611839565b52611814565b939050611186565b6001600160a01b03841660009081526009895260408082208583528a5290205416905087611180565b346101c057610cb96111ef3661149c565b91611677565b346101c05760403660031901126101c05761120e611470565b60243561121a81611a47565b331515806112c9575b8061129c575b611284576001600160a01b039283169282918491167f8c5be1e5ebec7d5bd14f71427d1e84f3dd0314c0f7b2291e5b200ac8c7c3b925600080a4600090815260046020526040902080546001600160a01b0319169091179055005b60405163a9fbf51f60e01b8152336004820152602490fd5b5060018060a01b038116600052600560205260406000203360005260205260ff6040600020541615611229565b506001600160a01b038116331415611223565b346101c05760203660031901126101c0576004356112f981611a47565b506000526004602052602060018060a01b0360406000205416604051908152f35b346101c05760003660031901126101c05760405160008054908261133d836114d1565b9182825260209360019085600182169182600014610ebe57505060011461136b5750610e4d92500383611541565b6000808052859250907f290decd9548b62a8d60345a988386fc84ba6bc95484008f6362f93160ef3e5635b8583106113ad575050610e4d935082010185610e40565b80548389018501528794508693909201918101611396565b346101c05760203660031901126101c0576004359063ffffffff60e01b82168092036101c0576020916380ac58cd60e01b811490811561141f575b811561140e575b5015158152f35b6301ffc9a760e01b14905083611407565b635b5e139f60e01b81149150611400565b919082519283825260005b84811061145c575050826000602080949584010152601f8019910116010190565b60208183018101518483018201520161143b565b600435906001600160a01b03821682036101c057565b602435906001600160a01b03821682036101c057565b60609060031901126101c0576001600160a01b039060043582811681036101c0579160243590811681036101c0579060443590565b90600182811c92168015611501575b60208310146114eb57565b634e487b7160e01b600052602260045260246000fd5b91607f16916114e0565b608081019081106001600160401b03821117610a7357604052565b606081019081106001600160401b03821117610a7357604052565b90601f801991011681019081106001600160401b03821117610a7357604052565b90604051918260008254611575816114d1565b908184526020946001916001811690816000146115e557506001146115a6575b5050506115a492500383611541565b565b600090815285812095935091905b8183106115cd5750506115a49350820101388080611595565b855488840185015294850194879450918301916115b4565b925050506115a494925060ff191682840152151560051b820101388080611595565b6001600160401b038111610a7357601f01601f191660200190565b92919261162e82611607565b9161163c6040519384611541565b8294818452818301116101c0578281602093846000960137010152565b9080601f830112156101c05781602061167493359101611622565b90565b6001600160a01b0391821692909183156103fe57600092828452826020956002875260409684888820541696879133151580611767575b509060027fddf252ad1be2c89b69c2b068fc378daa952ba7f163c4a11628f55a4df523b3ef9284611734575b858352600381528b8320805460010190558683525289812080546001600160a01b0319168517905580a416928383036117135750505050565b6064945051926364283d7b60e01b8452600484015260248301526044820152fd5b600087815260046020526040902080546001600160a01b0319169055848352600381528b832080546000190190556116da565b919394509150806117bc575b15611783578592918791386116ae565b8786886117a0576024915190637e27328960e01b82526004820152fd5b604491519063177e802f60e01b82523360048301526024820152fd5b5033871480156117e1575b806117735750858252600481523385898420541614611773565b5086825260058152878220338352815260ff88832054166117c7565b6001600160401b038111610a735760051b60200190565b60001981146118235760010190565b634e487b7160e01b600052601160045260246000fd5b805182101561184d5760209160051b010190565b634e487b7160e01b600052603260045260246000fd5b929092611871838583611677565b833b61187e575b50505050565b604051630a85bd0160e11b8082523360048301526001600160a01b03928316602483015260448201949094526080606482015294931692602092909185906118ca906084830190611430565b039483816000978189895af1869181611974575b5061193f575050503d600014611936573d6118f881611607565b906119066040519283611541565b81528093823d92013e5b8251928361193157604051633250574960e11b815260048101849052602490fd5b019050fd5b60609250611910565b919450915063ffffffff60e01b160361195c575038808080611878565b60249060405190633250574960e11b82526004820152fd5b9091508481813d83116119b1575b61198c8183611541565b810103126119ad57516001600160e01b0319811681036119ad5790386118de565b8680fd5b503d611982565b156119bf57565b60405162461bcd60e51b8152602060048201526014602482015273151bdad95b88191bd95cc81b9bdd08195e1a5cdd60621b6044820152606490fd5b15611a0257565b60405162461bcd60e51b815260206004820152601960248201527f4261646765207479706520646f6573206e6f74206578697374000000000000006044820152606490fd5b6000818152600260205260409020546001600160a01b0316908115611a6a575090565b60249060405190637e27328960e01b82526004820152fd5b6006546001600160a01b03163303611a9657565b60405163118cdaa760e01b8152336004820152602490fdfea26469706673582212201f40e988e51cd428e0f76790f303f0941409eb3b828f8ae4c5bb0558b09a690b64736f6c63430008180033",
  "linkReferences": {},
  "deployedLinkReferences": {}
}