{
  "_format": "hh-sol-artifact-1",
  "contractName": "AchievementBadge",
  "sourceName": "contracts/AchievementBadge.sol",
  "abi": [
    {
      "inputs": [],
      "stateMutability": "nonpayable",
      "type": "constructor"
    },
    {
      "inputs": [
        {
          "internalType": "address",
          "name": "sender",
          "type": "address"
        },
        {
          "internalType": "uint256",
          "name": "tokenId",
          "type": "uint256"
        },
        {
          "internalType": "address",
          "name": "owner",
          "type": "address"
        }
      ],
      "name": "ERC721IncorrectOwner",
      "type": "error"
    },
    {
      "inputs": [
        {
          "internalType": "address",
          "name": "operator",
          "type": "address"
        },
        {
          "internalType": "uint256",
          "name": "tokenId",
          "type": "uint256"
        }
      ],
      "name": "ERC721InsufficientApproval",
      "type": "error"
    },
    {
      "inputs": [
        {
          "internalType": "address",
          "name": "approver",
          "type": "address"
        }
      ],
      "name": "ERC721InvalidApprover",
      "type": "error"
    },
    {
      "inputs": [
        {
          "internalType": "address",
          "name": "operator",
          "type": "address"
        }
      ],
      "name": "ERC721InvalidOperator",
      "type": "error"
    },
    {
      "inputs": [
        {
          "internalType": "address",
          "name": "owner",
          "type": "address"
        }
      ],
      "name": "ERC721InvalidOwner",
      "type": "error"
    },
    {
      "inputs": [
        {
          "internalType": "address",
          "name": "receiver",
          "type": "address"
        }
      ],
      "name": "ERC721InvalidReceiver",
      "type": "error"
    },
    {
      "inputs": [
        {
          "internalType": "address",
          "name": "sender",
          "type": "address"
        }
      ],
      "name": "ERC721InvalidSender",
      "type": "error"
    },
    {
      "inputs": [
        {
          "internalType": "uint256",
          "name": "tokenId",
          "type": "uint256"
        }
      ],
      "name": "ERC721NonexistentToken",
      "type": "error"
    },
    {
      "inputs": [
        {
          "internalType": "address",
          "name": "owner",
          "type": "address"
        }
      ],
      "name": "OwnableInvalidOwner",
      "type": "error"
    },
    {
      "inputs": [
        {
          "internalType": "address",
          "name": "account",
          "type": "address"
        }
      ],
      "name": "OwnableUnauthorizedAccount",
      "type": "error"
    },
    {
      "anonymous": false,
      "inputs": [
        {
          "indexed": true,
          "internalType": "address",
          "name": "owner",
          "type": "address"
        },
        {
          "indexed": true,
          "internalType": "address",
          "name": "approved",
          "type": "address"
        },
        {
          "indexed": true,
          "internalType": "uint256",
          "name": "tokenId",
          "type": "uint256"
        }
      ],
      "name": "Approval",
      "type": "event"
    },
    {
      "anonymous": false,
      "inputs": [
        {
          "indexed": true,
          "internalType": "address",
          "name": "owner",
          "type": "address"
        },
        {
          "indexed": true,
          "internalType": "address",
          "name": "operator",
          "type": "address"
        },
        {
          "indexed": false,
          "internalType": "bool",
          "name": "approved",
          "type": "bool"
        }
      ],
      "name": "ApprovalForAll",
      "type": "event"
    },
    {
      "anonymous": false,
      "inputs": [
        {
          "indexed": true,
          "internalType": "address",
          "name": "recipient",
          "type": "address"
        },
        {
          "indexed": true,
          "internalType": "uint256",
          "name": "badgeTypeId",
          "type": "uint256"
        }
      ],
      "name": "BadgeClaimed",
      "type": "event"
    },
    {
      "anonymous": false,
      "inputs": [
        {
          "indexed": true,
          "internalType": "address",
          "name": "recipient",
          "type": "address"
        },
        {
          "indexed": true,
          "internalType": "uint256",
          "name": "tokenId",
          "type": "uint256"
        },
        {
          "indexed": true,
          "internalType": "uint256",
          "name": "badgeTypeId",
          "type": "uint256"
        }
      ],
      "name": "BadgeMinted",
      "type": "event"
    },
    {
      "anonymous": false,
      "inputs": [
        {
          "indexed": true,
          "internalType": "uint256",
          "name": "badgeTypeId",
          "type": "uint256"
        },
        {
          "indexed": false,
          "internalType": "string",
          "name": "name",
          "type": "string"
        },
        {
          "indexed": false,
          "internalType": "string",
          "name": "description",
          "type": "string"
        }
      ],
      "name": "BadgeTypeAdded",
      "type": "event"
    },
    {
      "anonymous": false,
      "inputs": [
        {
          "indexed": true,
          "internalType": "address",
          "name": "previousOwner",
          "type": "address"
        },
        {
          "indexed": true,
          "internalType": "address",
          "name": "newOwner",
          "type": "address"
        }
      ],
      "name": "OwnershipTransferred",
      "type": "event"
    },
    {
      "anonymous": false,
      "inputs": [
        {
          "indexed": true,
          "internalType": "address",
          "name": "from",
          "type": "address"
        },
        {
          "indexed": true,
          "internalType": "address",
          "name": "to",
          "type": "address"
        },
        {
          "indexed": true,
          "internalType": "uint256",
          "name": "tokenId",
          "type": "uint256"
        }
      ],
      "name": "Transfer",
      "type": "event"
    },
    {
      "inputs": [
        {
          "internalType": "uint256",
          "name": "_badgeTypeId",
          "type": "uint256"
        },
        {
          "internalType": "string",
          "name": "_name",
          "type": "string"
        },
        {
          "internalType": "string",
          "name": "_description",
          "type": "string"
        },
        {
          "internalType": "string",
          "name": "_imageURI",
          "type": "string"
        }
      ],
      "name": "addBadgeType",
      "outputs": [],
      "stateMutability": "nonpayable",
      "type": "function"
    },
    {
      "inputs": [
        {
          "internalType": "address",
          "name": "to",
          "type": "address"
        },
        {
          "internalType": "uint256",
          "name": "tokenId",
          "type": "uint256"
        }
      ],
      "name": "approve",
      "outputs": [],
      "stateMutability": "nonpayable",
      "type": "function"
    },
    {
      "inputs": [
        {
          "internalType": "uint256",
          "name": "",
          "type": "uint256"
        }
      ],
      "name": "badgeTypes",
      "outputs": [
        {
          "internalType": "string",
          "name": "name",
          "type": "string"
        },
        {
          "internalType": "string",
          "name": "description",
          "type": "string"
        },
        {
          "internalType": "string",
          "name": "imageURI",
          "type": "string"
        },
        {
          "internalType": "bool",
          "name": "exists",
          "type": "bool"
        }
      ],
      "stateMutability": "view",
      "type": "function"
    },
    {
      "inputs": [
        {
          "internalType": "address",
          "name": "owner",
          "type": "address"
        }
      ],
      "name": "balanceOf",
      "outputs": [
        {
          "internalType": "uint256",
          "name": "",
          "type": "uint256"
        }
      ],
      "stateMutability": "view",
      "type": "function"
    },
    {
      "inputs": [
        {
          "internalType": "address",
          "name": "_user",
          "type": "address"
        },
        {
          "internalType": "uint256",
          "name": "_badgeTypeId",
          "type": "uint256"
        }
      ],
      "name": "canClaimBadge",
      "outputs": [
        {
          "internalType": "bool",
          "name": "",
          "type": "bool"
        }
      ],
      "stateMutability": "view",
      "type": "function"
    },
    {
      "inputs": [
        {
          "internalType": "uint256",
          "name": "_badgeTypeId",
          "type": "uint256"
        }
      ],
      "name": "claimBadge",
      "outputs": [
        {
          "internalType": "uint256",
          "name": "",
          "type": "uint256"
        }
      ],
      "stateMutability": "nonpayable",
      "type": "function"
    },
    {
      "inputs": [
        {
          "internalType": "address",
          "name": "",
          "type": "address"
        },
        {
          "internalType": "uint256",
          "name": "",
          "type": "uint256"
        }
      ],
      "name": "claimedBadges",
      "outputs": [
        {
          "internalType": "bool",
          "name": "",
          "type": "bool"
        }
      ],
      "stateMutability": "view",
      "type": "function"
    },
    {
      "inputs": [
        {
          "internalType": "uint256",
          "name": "tokenId",
          "type": "uint256"
        }
      ],
      "name": "getApproved",
      "outputs": [
        {
          "internalType": "address",
          "name": "",
          "type": "address"
        }
      ],
      "stateMutability": "view",
      "type": "function"
    },
    {
      "inputs": [
        {
          "internalType": "uint256",
          "name": "_tokenId",
          "type": "uint256"
        }
      ],
      "name": "getBadgeMetadata",
      "outputs": [
        {
          "components": [
            {
              "internalType": "uint256",
              "name": "badgeTypeId",
              "type": "uint256"
            },
            {
              "internalType": "uint256",
              "name": "mintedAt",
              "type": "uint256"
            },
            {
              "internalType": "address",
              "name": "recipient",
              "type": "address"
            }
          ],
          "internalType": "struct AchievementBadge.BadgeMetadata",
          "name": "",
          "type": "tuple"
        }
      ],
      "stateMutability": "view",
      "type": "function"
    },
    {
      "inputs": [
        {
          "internalType": "uint256",
          "name": "_badgeTypeId",
          "type": "uint256"
        }
      ],
      "name": "getBadgeType",
      "outputs": [
        {
          "components": [
            {
              "internalType": "string",
              "name": "name",
              "type": "string"
            },
            {
              "internalType": "string",
              "name": "description",
              "type": "string"
            },
            {
              "internalType": "string",
              "name": "imageURI",
              "type": "string"
            },
            {
              "internalType": "bool",
              "name": "exists",
              "type": "bool"
            }
          ],
          "internalType": "struct AchievementBadge.BadgeType",
          "name": "",
          "type": "tuple"
        }
      ],
      "stateMutability": "view",
      "type": "function"
    },
    {
      "inputs": [
        {
          "internalType": "address",
          "name": "_user",
          "type": "address"
        }
      ],
      "name": "getUserBadges",
      "outputs": [
        {
          "internalType": "uint256[]",
          "name": "",
          "type": "uint256[]"
        }
      ],
      "stateMutability": "view",
      "type": "function"
    },
    {
      "inputs": [
        {
          "internalType": "address",
          "name": "_user",
          "type": "address"
        },
        {
          "internalType": "uint256",
          "name": "_badgeTypeId",
          "type": "uint256"
        }
      ],
      "name": "hasBadge",
      "outputs": [
        {
          "internalType": "bool",
          "name": "",
          "type": "bool"
        }
      ],
      "stateMutability": "view",
      "type": "function"
    },
    {
      "inputs": [
        {
          "internalType": "address",
          "name": "owner",
          "type": "address"
        },
        {
          "internalType": "address",
          "name": "operator",
          "type": "address"
        }
      ],
      "name": "isApprovedForAll",
      "outputs": [
        {
          "internalType": "bool",
          "name": "",
          "type": "bool"
        }
      ],
      "stateMutability": "view",
      "type": "function"
    },
    {
      "inputs": [
        {
          "internalType": "address",
          "name": "_recipient",
          "type": "address"
        },
        {
          "internalType": "uint256",
          "name": "_badgeTypeId",
          "type": "uint256"
        }
      ],
      "name": "mintBadge",
      "outputs": [
        {
          "internalType": "uint256",
          "name": "",
          "type": "uint256"
        }
      ],
      "stateMutability": "nonpayable",
      "type": "function"
    },
    {
      "inputs": [],
      "name": "name",
      "outputs": [
        {
          "internalType": "string",
          "name": "",
          "type": "string"
        }
      ],
      "stateMutability": "view",
      "type": "function"
    },
    {
      "inputs": [],
      "name": "owner",
      "outputs": [
        {
          "internalType": "address",
          "name": "",
          "type": "address"
        }
      ],
      "stateMutability": "view",
      "type": "function"
    },
    {
      "inputs": [
        {
          "internalType": "uint256",
          "name": "tokenId",
          "type": "uint256"
        }
      ],
      "name": "ownerOf",
      "outputs": [
        {
          "internalType": "address",
          "name": "",
          "type": "address"
        }
      ],
      "stateMutability": "view",
      "type": "function"
    },
    {
      "inputs": [],
      "name": "renounceOwnership",
      "outputs": [],
      "stateMutability": "nonpayable",
      "type": "function"
    },
    {
      "inputs": [
        {
          "internalType": "address",
          "name": "from",
          "type": "address"
        },
        {
          "internalType": "address",
          "name": "to",
          "type": "address"
        },
        {
          "internalType": "uint256",
          "name": "tokenId",
          "type": "uint256"
        }
      ],
      "name": "safeTransferFrom",
      "outputs": [],
      "stateMutability": "nonpayable",
      "type": "function"
    },
    {
      "inputs": [
        {
          "internalType": "address",
          "name": "from",
          "type": "address"
        },
        {
          "internalType": "address",
          "name": "to",
          "type": "address"
        },
        {
          "internalType": "uint256",
          "name": "tokenId",
          "type": "uint256"
        },
        {
          "internalType": "bytes",
          "name": "data",
          "type": "bytes"
        }
      ],
      "name": "safeTransferFrom",
      "outputs": [],
      "stateMutability": "nonpayable",
      "type": "function"
    },
    {
      "inputs": [
        {
          "internalType": "address",
          "name": "operator",
          "type": "address"
        },
        {
          "internalType": "bool",
          "name": "approved",
          "type": "bool"
        }
      ],
      "name": "setApprovalForAll",
      "outputs": [],
      "stateMutability": "nonpayable",
      "type": "function"
    },
    {
      "inputs": [
        {
          "internalType": "bytes4",
          "name": "interfaceId",
          "type": "bytes4"
        }
      ],
      "name": "supportsInterface",
      "outputs": [
        {
          "internalType": "bool",
          "name": "",
          "type": "bool"
        }
      ],
      "stateMutability": "view",
      "type": "function"
    },
    {
      "inputs": [],
      "name": "symbol",
      "outputs": [
        {
          "internalType": "string",
          "name": "",
          "type": "string"
        }
      ],
      "stateMutability": "view",
      "type": "function"
    },
    {
      "inputs": [
        {
          "internalType": "uint256",
          "name": "",
          "type": "uint256"
        }
      ],
      "name": "tokenMetadata",
      "outputs": [
        {
          "internalType": "uint256",
          "name": "badgeTypeId",
          "type": "uint256"
        },
        {
          "internalType": "uint256",
          "name": "mintedAt",
          "type": "uint256"
        },
        {
          "internalType": "address",
          "name": "recipient",
          "type": "address"
        }
      ],
      "stateMutability": "view",
      "type": "function"
    },
    {
      "inputs": [
        {
          "internalType": "uint256",
          "name": "_tokenId",
          "type": "uint256"
        }
      ],
      "name": "tokenURI",
      "outputs": [
        {
          "internalType": "string",
          "name": "",
          "type": "string"
        }
      ],
      "stateMutability": "view",
      "type": "function"
    },
    {
      "inputs": [
        {
          "internalType": "address",
          "name": "from",
          "type": "address"
        },
        {
          "internalType": "address",
          "name": "to",
          "type": "address"
        },
        {
          "internalType": "uint256",
          "name": "tokenId",
          "type": "uint256"
        }
      ],
      "name": "transferFrom",
      "outputs": [],
      "stateMutability": "nonpayable",
      "type": "function"
    },
    {
      "inputs": [
        {
          "internalType": "address",
          "name": "newOwner",
          "type": "address"
        }
      ],
      "name": "transferOwnership",
      "outputs": [],
      "stateMutability": "nonpayable",
      "type": "function"
    },
    {
      "inputs": [
        {
          "internalType": "address",
          "name": "",
          "type": "address"
        },
        {
          "internalType": "uint256",
          "name": "",
          "type": "uint256"
        }
      ],
      "name": "userBadges",
      "outputs": [
        {
          "internalType": "bool",
          "name": "",
          "type": "bool"
        }
      ],
      "stateMutability": "view",
      "type": "function"
    }
  ],
  "bytecode": "0x608034620003ab5760406001600160401b0382820181811184821017620003955782526020928381527f5374617274557020517565737420416368696576656d656e74204261646765738482015282519183830183811082821117620003955784526004928381526329a8a0a160e11b8682015282519082821162000380576000968754926001958685811c9516801562000375575b8386101462000362578190601f958681116200030f575b508390868311600114620002ab578b926200029f575b5050600019600383901b1c191690861b1788555b81519384116200028c5784548581811c9116801562000281575b828210146200026e57908184869594931162000217575b5080928411600114620001af57508792620001a3575b5050600019600383901b1c191690821b1790555b33156200018e575060068054336001600160a01b03198216811790925591519290916001600160a01b0316907f8be0079c531659141344cd1fd0a4f28419497f9722a3daafe3b4186f6b6457e09080a3611dd49081620003b18239f35b826024925191631e4fbdf760e01b8352820152fd5b0151905038806200011d565b9190859450601f198416858a52838a20938a905b828210620001fd5750508411620001e3575b505050811b01905562000131565b015160001960f88460031b161c19169055388080620001d5565b8484015186558897909501949384019390810190620001c3565b90919293508589528189208480870160051c82019284881062000264575b9187968992969594930160051c01915b8281106200025557505062000107565b8b815587965088910162000245565b9250819262000235565b634e487b7160e01b895260228752602489fd5b90607f1690620000f0565b634e487b7160e01b885260418652602488fd5b015190503880620000c2565b8b8052848c208994509190601f1984168d5b87828210620002f85750508411620002de575b505050811b018855620000d6565b015160001960f88460031b161c19169055388080620002d0565b8385015186558c97909501949384019301620002bd565b9091508a8052838b208680850160051c82019286861062000358575b918a91869594930160051c01915b82811062000349575050620000ac565b8d81558594508a910162000339565b925081926200032b565b634e487b7160e01b8a526022885260248afd5b94607f169462000095565b604185634e487b7160e01b6000525260246000fd5b634e487b7160e01b600052604160045260246000fd5b600080fdfe608080604052600436101561001357600080fd5b60003560e01c90816301ffc9a7146115785750806306fdde03146114cd578063081812fc1461148f578063095ea7b3146113a85780631a290fa41461135b578063234151351461119f57806323b872dd1461118857806337c245fe1461101c57806342842e0e14610fe35780634c6a70ce146104675780636352211e14610fb35780636914db6014610f6757806370a0823114610f0e578063715018a614610eb15780638da5cb5b14610e8857806395d89b4114610da5578063a22cb46514610cf7578063a8215aeb14610c53578063ae9abb7b14610bc1578063b88d4fde14610b60578063c47c991514610640578063c87b56dd14610562578063d19b6106146104b4578063df91cc2314610467578063e0e5fc4c14610362578063e42bff6614610237578063e985e9c5146101e15763f2fde38b1461015357600080fd5b346101dc5760203660031901126101dc5761016c611623565b610174611d72565b6001600160a01b039081169081156101c357600654826001600160601b0360a01b821617600655167f8be0079c531659141344cd1fd0a4f28419497f9722a3daafe3b4186f6b6457e0600080a3005b604051631e4fbdf760e01b815260006004820152602490fd5b600080fd5b346101dc5760403660031901126101dc576101fa611623565b610202611639565b9060018060a01b03809116600052600560205260406000209116600052602052602060ff604060002054166040519015158152f35b346101dc5760403660031901126101dc57610250611623565b60243561025b611d72565b806000526020916008835261027a60ff6003604060002001541661182a565b60018060a01b039182821692836000526009855260406000208260005285526102ab60ff6040600020541615611876565b6102c46102b96007546118c2565b809481600755611c9a565b836000526009855260406000208260005285526040600020600160ff19825416179055604051906102f4826116be565b828252600286830192428452604081019387855286600052600a8952604060002091518255516001820155019151166001600160601b0360a01b82541617905581604051937f7e6f783c7d2fd31e9979cbb09639e191e20de085caf64b2875d53ff862aa3baa600080a48152f35b346101dc576020806003193601126101dc57604051608091600435610386836116d9565b6000606084818096528185820152816040820152015280600052600882526103b860ff6003604060002001541661182a565b6000526008815261045a6040600020604051936103d4856116d9565b6103dd82611715565b85526103eb60018301611715565b9084860191825261044a61043460ff600361040860028801611715565b9660408b01978852015416968389019715158852604051998a99828b5251918a015260a08901906115e3565b925192601f1993848983030160408a01526115e3565b92519186840301908601526115e3565b9051151560808301520390f35b346101dc5760403660031901126101dc576001600160a01b03610488611623565b1660005260096020526040600020602435600052602052602060ff604060002054166040519015158152f35b346101dc5760203660031901126101dc576004356000604080516104d7816116be565b828152826020820152015261050961050482600052600260205260018060a01b0360406000205416151590565b611c1c565b600052600a602052606060406000206002604051610526816116be565b82549283825260406001820154916020840192835260018060a01b03948591015416920191825260405193845251602084015251166040820152f35b346101dc576020806003193601126101dc5760043560008181526002602052604090205461059a906001600160a01b03161515611c1c565b600052600a815260406000206040516105b2816116be565b6040825492838352600181015485840152600260018060a01b0391015416910152600052600881526040600020906040516105ec816116d9565b6105f583611715565b815261060360018401611715565b82820152606060ff600361061960028701611715565b95866040860152015416151591015261063c6040519282849384528301906115e3565b0390f35b346101dc5760803660031901126101dc576024356001600160401b0381116101dc5761067090369060040161180c565b6044356001600160401b0381116101dc5761068f90369060040161180c565b906064356001600160401b0381116101dc576106af90369060040161180c565b6106b7611d72565b600435600052600860205260ff60036040600020015416610b1b57604051906106df826116d9565b828252836020830152604082015260016060820152600435600052600860205260406000209080518051906001600160401b0382116109795781906107248554611684565b601f8111610acb575b50602090601f8311600114610a6557600092610a5a575b50508160011b916000199060031b1c19161782555b60208101518051906001600160401b03821161097957819061077e6001860154611684565b601f8111610a07575b50602090601f831160011461099a5760009261098f575b50508160011b916000199060031b1c19161760018301555b60408101518051906001600160401b038211610979576107d96002850154611684565b601f811161092e575b50602090601f83116001146108915760607ffa2fdedf558c825bc505ed2c5c0d7d4318465694a3299e7e5b7ecda4ddc7498e969484610859956108709895600395600092610886575b50508160011b9160001990861b1c19161760028501555b0151151591019060ff801983541691151516179055565b6108816040519283926040845260408401906115e3565b8281036020840152600435956115e3565b0390a2005b015190508b8061082b565b906002850160005260206000209160005b601f198516811061091657507ffa2fdedf558c825bc505ed2c5c0d7d4318465694a3299e7e5b7ecda4ddc7498e9694600185610870989560039560609561085999601f198116106108fe575b505050811b016002850155610842565b015160001983881b60f8161c191690558b80806108ee565b919260206001819286850151815501940192016108a2565b600285016000526020600020601f840160051c8101916020851061096f575b601f0160051c01905b81811061096357506107e2565b60008155600101610956565b909150819061094d565b634e487b7160e01b600052604160045260246000fd5b01519050868061079e565b600186016000908152602081209350601f198516905b8181106109ef57509084600195949392106109d6575b505050811b0160018301556107b6565b015160001960f88460031b161c191690558680806109c6565b929360206001819287860151815501950193016109b0565b909150600185016000526020600020601f840160051c810160208510610a53575b90849392915b601f830160051c82018110610a44575050610787565b60008155859450600101610a2e565b5080610a28565b015190508680610744565b6000868152602081209350601f198516905b818110610ab35750908460019594939210610a9a575b505050811b018255610759565b015160001960f88460031b161c19169055868080610a8d565b92936020600181928786015181550195019301610a77565b909150846000526020600020601f840160051c810160208510610b14575b90849392915b601f830160051c82018110610b0557505061072d565b60008155859450600101610aef565b5080610ae9565b60405162461bcd60e51b815260206004820152601960248201527f4261646765207479706520616c726561647920657869737473000000000000006044820152606490fd5b346101dc5760803660031901126101dc57610b79611623565b610b81611639565b606435916001600160401b0383116101dc57366023840112156101dc57610bb5610bbf9336906024816004013591016117d5565b9160443591611ac7565b005b346101dc5760203660031901126101dc576004356000526008602052610c2b6040600020610bee81611715565b90610c47610bfe60018301611715565b91610c3960ff6003610c1260028501611715565b93015416936040519687966080885260808801906115e3565b9086820360208801526115e3565b9084820360408601526115e3565b90151560608301520390f35b346101dc5760403660031901126101dc57610c6c611623565b60243590816000526020916008835260ff600360406000200154169182610ccc575b82610ca0575b50506040519015158152f35b6001600160a01b03166000908152600b84526040808220928252918452205460ff161590508280610c94565b6001600160a01b0381166000908152600985526040808220848352865290205460ff16159250610c8e565b346101dc5760403660031901126101dc57610d10611623565b60243590811515908183036101dc576001600160a01b0316918215610d8c57610d5e9033600052600560205260406000208460005260205260406000209060ff801983541691151516179055565b6040519081527f17307eab39ab6107e8899845ad3d59bd9653f200f220920489ca2b5937696c3160203392a3005b604051630b61174360e31b815260048101849052602490fd5b346101dc5760003660031901126101dc57604051600060018260015492610dcb84611684565b9283835260209485600182169182600014610e68575050600114610e0b575b50610df7925003836116f4565b61063c6040519282849384528301906115e3565b84915060016000527fb10e2d527612073b26eecdfd717e6a320cf44b4afac2b0732d9fcbe2b7fa0cf6906000915b858310610e50575050610df7935082010185610dea565b80548389018501528794508693909201918101610e39565b60ff191685820152610df795151560051b8501019250879150610dea9050565b346101dc5760003660031901126101dc576006546040516001600160a01b039091168152602090f35b346101dc5760003660031901126101dc57610eca611d72565b600680546001600160a01b031981169091556000906001600160a01b03167f8be0079c531659141344cd1fd0a4f28419497f9722a3daafe3b4186f6b6457e08280a3005b346101dc5760203660031901126101dc576001600160a01b03610f2f611623565b168015610f4e5760005260036020526020604060002054604051908152f35b6040516322718ad960e21b815260006004820152602490fd5b346101dc5760203660031901126101dc57600435600052600a60205260606040600020805490600181015490600260018060a01b03910154169060405192835260208301526040820152f35b346101dc5760203660031901126101dc576020610fd1600435611c5f565b6040516001600160a01b039091168152f35b346101dc57610ff13661164f565b6040519160208301938385106001600160401b0386111761097957610bbf9460405260008452611ac7565b346101dc576020806003193601126101dc57611036611623565b60405190610ca082018281106001600160401b03821117610979576040526064808352610c80368585013760009160015b8281111561110e5750505061107b81611a86565b9061108960405192836116f4565b80825261109581611a86565b8285019390601f190136853760005b8281106110ef5750505090604051928392818401908285525180915260408401929160005b8281106110d857505050500390f35b8351855286955093810193928101926001016110c9565b806110fc60019284611a9d565b516111078287611a9d565b52016110a4565b806000526008865260ff8060036040600020015416908161115f575b5061113e575b611139906118c2565b611067565b9261115781856111516111399489611a9d565b526118c2565b939050611130565b6001600160a01b03841660009081526009895260408082208583528a529020541690508761112a565b346101dc57610bbf6111993661164f565b916118e7565b346101dc576020806003193601126101dc5760043580600052600882526111d060ff6003604060002001541661182a565b336000526009825260406000208160005282526111f560ff6040600020541615611876565b33600052600b8252604060002081600052825260ff6040600020541661131e576112206007546118c2565b8060075561122e8133611c9a565b33600052600983526040600020826000528352604060002060ff199060018282541617905533600052600b845260406000208360005284526001604060002091825416179055604051611280816116be565b828152600284820191428352604081019233845284600052600a8752604060002091518255516001820155019060018060a01b039051166001600160601b0360a01b825416179055604051918082337f7e6f783c7d2fd31e9979cbb09639e191e20de085caf64b2875d53ff862aa3baa600080a4337fbdaec09f93a9e010d98b043dd79efaaa052a0eed6b10c9ffe87c8f7e256da56f600080a38152f35b60405162461bcd60e51b815260048101839052601560248201527410985919d948185b1c9958591e4818db185a5b5959605a1b6044820152606490fd5b346101dc5760403660031901126101dc576001600160a01b0361137c611623565b16600052600b6020526040600020602435600052602052602060ff604060002054166040519015158152f35b346101dc5760403660031901126101dc576113c1611623565b6024356113cd81611c5f565b3315158061147c575b8061144f575b611437576001600160a01b039283169282918491167f8c5be1e5ebec7d5bd14f71427d1e84f3dd0314c0f7b2291e5b200ac8c7c3b925600080a4600090815260046020526040902080546001600160a01b0319169091179055005b60405163a9fbf51f60e01b8152336004820152602490fd5b5060018060a01b038116600052600560205260406000203360005260205260ff60406000205416156113dc565b506001600160a01b0381163314156113d6565b346101dc5760203660031901126101dc576004356114ac81611c5f565b506000526004602052602060018060a01b0360406000205416604051908152f35b346101dc5760003660031901126101dc576040516000805490826114f083611684565b9182825260209360019085600182169182600014610e6857505060011461151e5750610df7925003836116f4565b6000808052859250907f290decd9548b62a8d60345a988386fc84ba6bc95484008f6362f93160ef3e5635b858310611560575050610df7935082010185610dea565b80548389018501528794508693909201918101611549565b346101dc5760203660031901126101dc576004359063ffffffff60e01b82168092036101dc576020916380ac58cd60e01b81149081156115d2575b81156115c1575b5015158152f35b6301ffc9a760e01b149050836115ba565b635b5e139f60e01b811491506115b3565b919082519283825260005b84811061160f575050826000602080949584010152601f8019910116010190565b6020818301810151848301820152016115ee565b600435906001600160a01b03821682036101dc57565b602435906001600160a01b03821682036101dc57565b60609060031901126101dc576001600160a01b039060043582811681036101dc579160243590811681036101dc579060443590565b90600182811c921680156116b4575b602083101461169e57565b634e487b7160e01b600052602260045260246000fd5b91607f1691611693565b606081019081106001600160401b0382111761097957604052565b608081019081106001600160401b0382111761097957604052565b90601f801991011681019081106001600160401b0382111761097957604052565b9060405191826000825461172881611684565b908184526020946001916001811690816000146117985750600114611759575b505050611757925003836116f4565b565b600090815285812095935091905b8183106117805750506117579350820101388080611748565b85548884018501529485019487945091830191611767565b9250505061175794925060ff191682840152151560051b820101388080611748565b6001600160401b03811161097957601f01601f191660200190565b9291926117e1826117ba565b916117ef60405193846116f4565b8294818452818301116101dc578281602093846000960137010152565b9080601f830112156101dc57816020611827933591016117d5565b90565b1561183157565b60405162461bcd60e51b815260206004820152601960248201527f4261646765207479706520646f6573206e6f74206578697374000000000000006044820152606490fd5b1561187d57565b60405162461bcd60e51b815260206004820152601b60248201527f5573657220616c726561647920686173207468697320626164676500000000006044820152606490fd5b60001981146118d15760010190565b634e487b7160e01b600052601160045260246000fd5b6001600160a01b039182169290918315611a6d576000928284528260209560028752604096848888205416968791331515806119d7575b509060027fddf252ad1be2c89b69c2b068fc378daa952ba7f163c4a11628f55a4df523b3ef92846119a4575b858352600381528b8320805460010190558683525289812080546001600160a01b0319168517905580a416928383036119835750505050565b6064945051926364283d7b60e01b8452600484015260248301526044820152fd5b600087815260046020526040902080546001600160a01b0319169055848352600381528b8320805460001901905561194a565b91939450915080611a2c575b156119f35785929187913861191e565b878688611a10576024915190637e27328960e01b82526004820152fd5b604491519063177e802f60e01b82523360048301526024820152fd5b503387148015611a51575b806119e357508582526004815233858984205416146119e3565b5086825260058152878220338352815260ff8883205416611a37565b604051633250574960e11b815260006004820152602490fd5b6001600160401b0381116109795760051b60200190565b8051821015611ab15760209160051b010190565b634e487b7160e01b600052603260045260246000fd5b929092611ad58385836118e7565b833b611ae2575b50505050565b604051630a85bd0160e11b8082523360048301526001600160a01b0392831660248301526044820194909452608060648201529493169260209290918590611b2e9060848301906115e3565b039483816000978189895af1869181611bd8575b50611ba3575050503d600014611b9a573d611b5c816117ba565b90611b6a60405192836116f4565b81528093823d92013e5b82519283611b9557604051633250574960e11b815260048101849052602490fd5b019050fd5b60609250611b74565b919450915063ffffffff60e01b1603611bc0575038808080611adc565b60249060405190633250574960e11b82526004820152fd5b9091508481813d8311611c15575b611bf081836116f4565b81010312611c1157516001600160e01b031981168103611c11579038611b42565b8680fd5b503d611be6565b15611c2357565b60405162461bcd60e51b8152602060048201526014602482015273151bdad95b88191bd95cc81b9bdd08195e1a5cdd60621b6044820152606490fd5b6000818152600260205260409020546001600160a01b0316908115611c82575090565b60249060405190637e27328960e01b82526004820152fd5b6001600160a01b0391908216908115611a6d576000928184526002602052604084205416918215159283611d3d575b81855260036020526040852060018154019055828552600260205260408520826001600160601b0360a01b8254161790557fddf252ad1be2c89b69c2b068fc378daa952ba7f163c4a11628f55a4df523b3ef8580a4611d255750565b602490604051906339e3563760e11b82526004820152fd5b600083815260046020526040902080546001600160a01b03191690558085526003602052604085208054600019019055611cc9565b6006546001600160a01b03163303611d8657565b60405163118cdaa760e01b8152336004820152602490fdfea26469706673582212203c465ee1338d55f8c4bb554dddaacfe3dd073be5d458857de9781bbe7d2bc62164736f6c63430008180033",
  "linkReferences": {},
  "deployedLinkReferences": {}
}