{
  "_format": "hh-sol-artifact-1",
  "contractName": "XPSystem",
  "sourceName": "contracts/XPSystem.sol",
  "abi": [
    {
      "anonymous": false,
      "inputs": [
        {
          "indexed": true,
          "internalType": "address",
          "name": "user",
          "type": "address"
        },
        {
          "indexed": false,
          "internalType": "uint256",
          "name": "achievementId",
          "type": "uint256"
        }
      ],
      "name": "AchievementUnlocked",
      "type": "event"
    },
    {
      "anonymous": false,
      "inputs": [
        {
          "indexed": true,
          "internalType": "address",
          "name": "user",
          "type": "address"
        },
        {
          "indexed": false,
          "internalType": "uint256",
          "name": "challengeId",
          "type": "uint256"
        },
        {
          "indexed": false,
          "internalType": "uint256",
          "name": "xpReward",
          "type": "uint256"
        }
      ],
      "name": "DailyChallengeCompleted",
      "type": "event"
    },
    {
      "anonymous": false,
      "inputs": [
        {
          "indexed": true,
          "internalType": "address",
          "name": "user",
          "type": "address"
        },
        {
          "indexed": false,
          "internalType": "uint256",
          "name": "newLevel",
          "type": "uint256"
        }
      ],
      "name": "LevelUp",
      "type": "event"
    },
    {
      "anonymous": false,
      "inputs": [
        {
          "indexed": true,
          "internalType": "address",
          "name": "user",
          "type": "address"
        },
        {
          "indexed": false,
          "internalType": "uint256",
          "name": "phaseId",
          "type": "uint256"
        },
        {
          "indexed": false,
          "internalType": "uint256",
          "name": "xpReward",
          "type": "uint256"
        }
      ],
      "name": "PhaseCompleted",
      "type": "event"
    },
    {
      "anonymous": false,
      "inputs": [
        {
          "indexed": true,
          "internalType": "address",
          "name": "user",
          "type": "address"
        },
        {
          "indexed": false,
          "internalType": "uint256",
          "name": "powerUpId",
          "type": "uint256"
        }
      ],
      "name": "PowerUpActivated",
      "type": "event"
    },
    {
      "anonymous": false,
      "inputs": [
        {
          "indexed": true,
          "internalType": "address",
          "name": "user",
          "type": "address"
        },
        {
          "indexed": false,
          "internalType": "uint256",
          "name": "taskId",
          "type": "uint256"
        },
        {
          "indexed": false,
          "internalType": "uint256",
          "name": "xpReward",
          "type": "uint256"
        }
      ],
      "name": "TaskCompleted",
      "type": "event"
    },
    {
      "anonymous": false,
      "inputs": [
        {
          "indexed": true,
          "internalType": "address",
          "name": "user",
          "type": "address"
        },
        {
          "indexed": false,
          "internalType": "string",
          "name": "username",
          "type": "string"
        }
      ],
      "name": "UserRegistered",
      "type": "event"
    },
    {
      "anonymous": false,
      "inputs": [
        {
          "indexed": true,
          "internalType": "address",
          "name": "user",
          "type": "address"
        },
        {
          "indexed": false,
          "internalType": "uint256",
          "name": "oldXP",
          "type": "uint256"
        },
        {
          "indexed": false,
          "internalType": "uint256",
          "name": "newXP",
          "type": "uint256"
        },
        {
          "indexed": false,
          "internalType": "uint256",
          "name": "oldLevel",
          "type": "uint256"
        },
        {
          "indexed": false,
          "internalType": "uint256",
          "name": "newLevel",
          "type": "uint256"
        }
      ],
      "name": "XPUpdated",
      "type": "event"
    },
    {
      "inputs": [],
      "name": "ACHIEVEMENT_ALL_PHASES",
      "outputs": [
        {
          "internalType": "uint256",
          "name": "",
          "type": "uint256"
        }
      ],
      "stateMutability": "view",
      "type": "function"
    },
    {
      "inputs": [],
      "name": "ACHIEVEMENT_FIRST_TASK",
      "outputs": [
        {
          "internalType": "uint256",
          "name": "",
          "type": "uint256"
        }
      ],
      "stateMutability": "view",
      "type": "function"
    },
    {
      "inputs": [],
      "name": "ACHIEVEMENT_HELPER",
      "outputs": [
        {
          "internalType": "uint256",
          "name": "",
          "type": "uint256"
        }
      ],
      "stateMutability": "view",
      "type": "function"
    },
    {
      "inputs": [],
      "name": "ACHIEVEMENT_LEVEL_10",
      "outputs": [
        {
          "internalType": "uint256",
          "name": "",
          "type": "uint256"
        }
      ],
      "stateMutability": "view",
      "type": "function"
    },
    {
      "inputs": [],
      "name": "ACHIEVEMENT_LEVEL_5",
      "outputs": [
        {
          "internalType": "uint256",
          "name": "",
          "type": "uint256"
        }
      ],
      "stateMutability": "view",
      "type": "function"
    },
    {
      "inputs": [],
      "name": "ACHIEVEMENT_PHASE_COMPLETER",
      "outputs": [
        {
          "internalType": "uint256",
          "name": "",
          "type": "uint256"
        }
      ],
      "stateMutability": "view",
      "type": "function"
    },
    {
      "inputs": [],
      "name": "ACHIEVEMENT_SOCIAL_BUTTERFLY",
      "outputs": [
        {
          "internalType": "uint256",
          "name": "",
          "type": "uint256"
        }
      ],
      "stateMutability": "view",
      "type": "function"
    },
    {
      "inputs": [],
      "name": "ACHIEVEMENT_TASK_MASTER",
      "outputs": [
        {
          "internalType": "uint256",
          "name": "",
          "type": "uint256"
        }
      ],
      "stateMutability": "view",
      "type": "function"
    },
    {
      "inputs": [],
      "name": "POWERUP_AUTO_COMPLETE",
      "outputs": [
        {
          "internalType": "uint256",
          "name": "",
          "type": "uint256"
        }
      ],
      "stateMutability": "view",
      "type": "function"
    },
    {
      "inputs": [],
      "name": "POWERUP_LUCKY_DRAW",
      "outputs": [
        {
          "internalType": "uint256",
          "name": "",
          "type": "uint256"
        }
      ],
      "stateMutability": "view",
      "type": "function"
    },
    {
      "inputs": [],
      "name": "POWERUP_PHASE_UNLOCK",
      "outputs": [
        {
          "internalType": "uint256",
          "name": "",
          "type": "uint256"
        }
      ],
      "stateMutability": "view",
      "type": "function"
    },
    {
      "inputs": [],
      "name": "POWERUP_STREAK_PROTECT",
      "outputs": [
        {
          "internalType": "uint256",
          "name": "",
          "type": "uint256"
        }
      ],
      "stateMutability": "view",
      "type": "function"
    },
    {
      "inputs": [],
      "name": "POWERUP_TEAM_BOOST",
      "outputs": [
        {
          "internalType": "uint256",
          "name": "",
          "type": "uint256"
        }
      ],
      "stateMutability": "view",
      "type": "function"
    },
    {
      "inputs": [],
      "name": "POWERUP_XP_BOOST",
      "outputs": [
        {
          "internalType": "uint256",
          "name": "",
          "type": "uint256"
        }
      ],
      "stateMutability": "view",
      "type": "function"
    },
    {
      "inputs": [
        {
          "internalType": "address",
          "name": "",
          "type": "address"
        },
        {
          "internalType": "uint256",
          "name": "",
          "type": "uint256"
        }
      ],
      "name": "achievements",
      "outputs": [
        {
          "internalType": "bool",
          "name": "",
          "type": "bool"
        }
      ],
      "stateMutability": "view",
      "type": "function"
    },
    {
      "inputs": [
        {
          "internalType": "uint256",
          "name": "_powerUpId",
          "type": "uint256"
        },
        {
          "internalType": "uint256",
          "name": "_cost",
          "type": "uint256"
        }
      ],
      "name": "activatePowerUp",
      "outputs": [],
      "stateMutability": "nonpayable",
      "type": "function"
    },
    {
      "inputs": [],
      "name": "checkLevelAchievements",
      "outputs": [],
      "stateMutability": "nonpayable",
      "type": "function"
    },
    {
      "inputs": [
        {
          "internalType": "uint256",
          "name": "_challengeId",
          "type": "uint256"
        },
        {
          "internalType": "uint256",
          "name": "_xpReward",
          "type": "uint256"
        }
      ],
      "name": "completeDailyChallenge",
      "outputs": [],
      "stateMutability": "nonpayable",
      "type": "function"
    },
    {
      "inputs": [
        {
          "internalType": "uint256",
          "name": "_phaseId",
          "type": "uint256"
        },
        {
          "internalType": "uint256",
          "name": "_xpReward",
          "type": "uint256"
        }
      ],
      "name": "completePhase",
      "outputs": [],
      "stateMutability": "nonpayable",
      "type": "function"
    },
    {
      "inputs": [
        {
          "internalType": "uint256",
          "name": "_taskId",
          "type": "uint256"
        },
        {
          "internalType": "uint256",
          "name": "_xpReward",
          "type": "uint256"
        }
      ],
      "name": "completeTask",
      "outputs": [],
      "stateMutability": "nonpayable",
      "type": "function"
    },
    {
      "inputs": [
        {
          "internalType": "address",
          "name": "",
          "type": "address"
        },
        {
          "internalType": "uint256",
          "name": "",
          "type": "uint256"
        }
      ],
      "name": "dailyChallenges",
      "outputs": [
        {
          "internalType": "uint256",
          "name": "",
          "type": "uint256"
        }
      ],
      "stateMutability": "view",
      "type": "function"
    },
    {
      "inputs": [
        {
          "internalType": "address",
          "name": "user",
          "type": "address"
        },
        {
          "internalType": "uint256",
          "name": "challengeId",
          "type": "uint256"
        }
      ],
      "name": "getDailyChallengeStatus",
      "outputs": [
        {
          "internalType": "uint256",
          "name": "",
          "type": "uint256"
        }
      ],
      "stateMutability": "view",
      "type": "function"
    },
    {
      "inputs": [
        {
          "internalType": "uint256",
          "name": "rank",
          "type": "uint256"
        }
      ],
      "name": "getLeaderboardEntry",
      "outputs": [
        {
          "internalType": "uint256",
          "name": "",
          "type": "uint256"
        }
      ],
      "stateMutability": "view",
      "type": "function"
    },
    {
      "inputs": [],
      "name": "getMyUser",
      "outputs": [
        {
          "internalType": "string",
          "name": "username",
          "type": "string"
        },
        {
          "internalType": "uint256",
          "name": "xp",
          "type": "uint256"
        },
        {
          "internalType": "uint256",
          "name": "level",
          "type": "uint256"
        },
        {
          "internalType": "uint256",
          "name": "achievements",
          "type": "uint256"
        },
        {
          "internalType": "uint256",
          "name": "dailyStreak",
          "type": "uint256"
        },
        {
          "internalType": "uint256",
          "name": "lastDailyCheck",
          "type": "uint256"
        },
        {
          "internalType": "uint256",
          "name": "powerUpsUsed",
          "type": "uint256"
        },
        {
          "internalType": "uint256",
          "name": "totalTasksCompleted",
          "type": "uint256"
        },
        {
          "internalType": "uint256",
          "name": "totalPhasesCompleted",
          "type": "uint256"
        },
        {
          "internalType": "uint256",
          "name": "ideasShared",
          "type": "uint256"
        },
        {
          "internalType": "uint256",
          "name": "upvotesGiven",
          "type": "uint256"
        }
      ],
      "stateMutability": "view",
      "type": "function"
    },
    {
      "inputs": [
        {
          "internalType": "address",
          "name": "user",
          "type": "address"
        },
        {
          "internalType": "uint256",
          "name": "powerUpId",
          "type": "uint256"
        }
      ],
      "name": "getPowerUpCount",
      "outputs": [
        {
          "internalType": "uint256",
          "name": "",
          "type": "uint256"
        }
      ],
      "stateMutability": "view",
      "type": "function"
    },
    {
      "inputs": [
        {
          "internalType": "address",
          "name": "userAddress",
          "type": "address"
        }
      ],
      "name": "getUser",
      "outputs": [
        {
          "internalType": "string",
          "name": "username",
          "type": "string"
        },
        {
          "internalType": "uint256",
          "name": "xp",
          "type": "uint256"
        },
        {
          "internalType": "uint256",
          "name": "level",
          "type": "uint256"
        },
        {
          "internalType": "uint256",
          "name": "achievements",
          "type": "uint256"
        },
        {
          "internalType": "uint256",
          "name": "dailyStreak",
          "type": "uint256"
        },
        {
          "internalType": "uint256",
          "name": "lastDailyCheck",
          "type": "uint256"
        },
        {
          "internalType": "uint256",
          "name": "powerUpsUsed",
          "type": "uint256"
        },
        {
          "internalType": "uint256",
          "name": "totalTasksCompleted",
          "type": "uint256"
        },
        {
          "internalType": "uint256",
          "name": "totalPhasesCompleted",
          "type": "uint256"
        },
        {
          "internalType": "uint256",
          "name": "ideasShared",
          "type": "uint256"
        },
        {
          "internalType": "uint256",
          "name": "upvotesGiven",
          "type": "uint256"
        }
      ],
      "stateMutability": "view",
      "type": "function"
    },
    {
      "inputs": [],
      "name": "giveUpvote",
      "outputs": [],
      "stateMutability": "nonpayable",
      "type": "function"
    },
    {
      "inputs": [
        {
          "internalType": "address",
          "name": "user",
          "type": "address"
        },
        {
          "internalType": "uint256",
          "name": "achievementId",
          "type": "uint256"
        }
      ],
      "name": "hasAchievement",
      "outputs": [
        {
          "internalType": "bool",
          "name": "",
          "type": "bool"
        }
      ],
      "stateMutability": "view",
      "type": "function"
    },
    {
      "inputs": [
        {
          "internalType": "address",
          "name": "user",
          "type": "address"
        }
      ],
      "name": "isUserRegistered",
      "outputs": [
        {
          "internalType": "bool",
          "name": "",
          "type": "bool"
        }
      ],
      "stateMutability": "view",
      "type": "function"
    },
    {
      "inputs": [
        {
          "internalType": "uint256",
          "name": "",
          "type": "uint256"
        }
      ],
      "name": "leaderboard",
      "outputs": [
        {
          "internalType": "uint256",
          "name": "",
          "type": "uint256"
        }
      ],
      "stateMutability": "view",
      "type": "function"
    },
    {
      "inputs": [
        {
          "internalType": "address",
          "name": "",
          "type": "address"
        },
        {
          "internalType": "uint256",
          "name": "",
          "type": "uint256"
        }
      ],
      "name": "powerUps",
      "outputs": [
        {
          "internalType": "uint256",
          "name": "",
          "type": "uint256"
        }
      ],
      "stateMutability": "view",
      "type": "function"
    },
    {
      "inputs": [
        {
          "internalType": "string",
          "name": "_username",
          "type": "string"
        }
      ],
      "name": "setUser",
      "outputs": [],
      "stateMutability": "nonpayable",
      "type": "function"
    },
    {
      "inputs": [],
      "name": "shareIdea",
      "outputs": [],
      "stateMutability": "nonpayable",
      "type": "function"
    },
    {
      "inputs": [
        {
          "internalType": "uint256",
          "name": "rank",
          "type": "uint256"
        },
        {
          "internalType": "uint256",
          "name": "xp",
          "type": "uint256"
        }
      ],
      "name": "updateLeaderboard",
      "outputs": [],
      "stateMutability": "nonpayable",
      "type": "function"
    },
    {
      "inputs": [
        {
          "internalType": "uint256",
          "name": "_xpAmount",
          "type": "uint256"
        }
      ],
      "name": "updateXPExternal",
      "outputs": [],
      "stateMutability": "nonpayable",
      "type": "function"
    },
    {
      "inputs": [
        {
          "internalType": "address",
          "name": "",
          "type": "address"
        }
      ],
      "name": "users",
      "outputs": [
        {
          "internalType": "string",
          "name": "username",
          "type": "string"
        },
        {
          "internalType": "uint256",
          "name": "xp",
          "type": "uint256"
        },
        {
          "internalType": "uint256",
          "name": "level",
          "type": "uint256"
        },
        {
          "internalType": "uint256",
          "name": "achievements",
          "type": "uint256"
        },
        {
          "internalType": "uint256",
          "name": "dailyStreak",
          "type": "uint256"
        },
        {
          "internalType": "uint256",
          "name": "lastDailyCheck",
          "type": "uint256"
        },
        {
          "internalType": "uint256",
          "name": "powerUpsUsed",
          "type": "uint256"
        },
        {
          "internalType": "uint256",
          "name": "totalTasksCompleted",
          "type": "uint256"
        },
        {
          "internalType": "uint256",
          "name": "totalPhasesCompleted",
          "type": "uint256"
        },
        {
          "internalType": "uint256",
          "name": "ideasShared",
          "type": "uint256"
        },
        {
          "internalType": "uint256",
          "name": "upvotesGiven",
          "type": "uint256"
        }
      ],
      "stateMutability": "view",
      "type": "function"
    }
  ],
  "bytecode": "0x60808060405234610016576115e7908161001c8239f35b600080fdfe608060408181526004918236101561001657600080fd5b600092833560e01c9182630adde6181461109a57508163108c8ae414610ecb578163163f752214610e895781631d30f44b14610e6957816323ff184214610bab578163242bb9fc146109ab57816341fe7a8b14610e6457816350cf24ba14610a915781635800c62214610e6457816359b2c5071461095f5781635f46f46e14610d7e57816363598a99146103825781636656f43914610bd75781636eb04c4f1461091e5781636f77926b14610bb057816373b313e114610bab57816378424ac514610a9657816385f190bc146109ee5781638e7392841461034157816390263fd714610a9157816394a4a36f14610a73578163a87430ba146109f3578163ab5eba1614610964578163b5636dde146109ee578163b7f6e590146109d2578163bf368399146109ab578163bf882e7314610964578163c43d14981461095f578163cf93d48b1461091e578163d0020fad146106a6578163d00cb95614610474578163d5184de114610387578163da24067214610382578163dd4a6abf14610341578163e0b35653146101f0575063ee7fb209146101b157600080fd5b346101ec57816003193601126101ec576101e8906101ce33611388565b989b999a979097969196959295949394519b8c9b8c611172565b0390f35b5080fd5b8383346101ec57610200366110b5565b919091338452602084815261022161021a8487205461121c565b1515611321565b33855284815282852095620151804204906002835284872086885283528185882054146102f45733875260028352848720868852835281858820556005880190815498600019840199848b116102e157847f3cbc8bbe5d00a981b09b1b9bb596bcf0290227aa313bddfc10961cad102e1604999a9b82149182156102d7575b5050156102cd57016102b28154611363565b90555b556102bf826113fb565b82519485528401523392a280f35b60019101556102b5565b149050848c6102a0565b634e487b7160e01b8a526011835260248afd5b845162461bcd60e51b8152908101839052602160248201527f4368616c6c656e676520616c726561647920636f6d706c6574656420746f64616044820152607960f81b6064820152608490fd5b5050346101ec57806003193601126101ec5760209181906001600160a01b036103686110d0565b168152600384528181206024358252845220549051908152f35b611156565b90503461047057610397366110b5565b9290923385526020928584526103b261021a8488205461121c565b33865285845281600184882001541061043b5750907fb361f5d9497646984306f53914d765e66f9ae279e35c4a6d4fa62afcc9293d5f92913386528583526104116001838820600681016104068154611363565b9055019182546113ee565b905533855260038252808520848652825280852061042f8154611363565b9055519283523392a280f35b825162461bcd60e51b8152908101849052600f60248201526e0496e73756666696369656e7420585608c1b6044820152606490fd5b8280fd5b8383346101ec57610484366110b5565b919091338452602084815261049e61021a8487205461121c565b338552848152600883862001956104b58754611363565b96878155600180981480610689575b6105e8575b600790541015806105cb575b610508575b50907fd9f294ae6f784fd81cc35af5d27d121165d59164ef3ed7135b4347b707c4baa892916102bf826113fb565b33865286825283862060068752825260ff848720541661059c57507fd9f294ae6f784fd81cc35af5d27d121165d59164ef3ed7135b4347b707c4baa89394953387528082528387206006885282528387209060ff198254161790553386528581526003838720016105798154611363565b9055825160068152600080516020611572833981519152823392a28594936104da565b60649184519162461bcd60e51b8352820152601c60248201526000805160206115928339815191526044820152fd5b5033865286825283862060068752825260ff8487205416156104d5565b33875287835284872060038852835260ff8588205416610659576007903388528884528588206003895284528588208960ff198254161790553388528784526003868920016106378154611363565b9055855160038152600080516020611572833981519152853392a290506104c9565b5060649184519162461bcd60e51b8352820152601c60248201526000805160206115928339815191526044820152fd5b5033875287835284872060038852835260ff8588205416156104c4565b9050346104705760208060031936011261091a5767ffffffffffffffff9282358481116109165736602382011215610916578084013594851161091657602490368287830101116109125785156108d157908591338852878552878481209687549761071b6107148a61121c565b159961121c565b601f811161087b575b508298601f87116001146107f25786867f48cac28ad4dc618e15f4c2dd5e97751182f166de97b25618318b2112aa951a2f9b86926107e5575b50508760011b906000198960031b1c19161782555b6107a3575b50505082845195808752860152018284013784818584010152813394601f80199101168101030190a280f35b82600a92816001840155600160028401558160038401558201558260058201558260068201558260078201558260088201558260098201550155873880610777565b870101359050863861075d565b818452888420601f1988169a855b8c811061085c5750887f48cac28ad4dc618e15f4c2dd5e97751182f166de97b25618318b2112aa951a2f9c10610840575b5050600187811b018255610772565b860187013560001960038a901b60f8161c191690553880610831565b87820189013583558d99508e9650600190920191908b01908b01610800565b9193949550809252868a20601f8a0160051c810191888b106108c7575b918b9391601f8c989796940160051c01905b8181106108b75750610724565b9384558a96508b936001016108aa565b9091508190610898565b5060649392601892519362461bcd60e51b85528401528201527f557365726e616d652063616e6e6f7420626520656d70747900000000000000006044820152fd5b8680fd5b8580fd5b8380fd5b5050346101ec57806003193601126101ec5760209181906001600160a01b036109456110d0565b168152600284528181206024358252845220549051908152f35b61113a565b5050346101ec57806003193601126101ec5760209160ff9082906001600160a01b0361098e6110d0565b168152600185528181206024358252855220541690519015158152f35b90503461047057602036600319011261047057602092818392358252845220549051908152f35b5050346101ec57816003193601126101ec576020905160088152f35b611200565b828434610a70576020366003190112610a70576101e89082906001600160a01b03610a1c6110d0565b168152806020522091610a2e83611256565b926001810154946002820154906003830154908301546005840154600685015491600786015493600887015495600a600989015498015498519b8c9b8c611172565b80fd5b9190503461047057610a84366110b5565b9290845260205282205580f35b61111e565b91905034610470578260031936011261047057338352602091838352610ac161021a8386205461121c565b3384528383526005600983862001610ad98154611363565b809155101580610b8d575b610aec578380f35b3384526001835281842060078552835260ff8285205416610b5e57506000805160206115728339815191529033845260018352808420600785528352808420600160ff19825416179055338452838352600381852001610b4c8154611363565b90555191600783523392a23880808380f35b82606492519162461bcd60e51b8352820152601c60248201526000805160206115928339815191526044820152fd5b503384526001835281842060078552835260ff828520541615610ae4565b6110e6565b5050346101ec5760203660031901126101ec576101e8906101ce610bd26110d0565b611388565b91905034610470578260031936011261047057338352602091838352610c0261021a8386205461121c565b33845283835260028285200160058154101580610d64575b610cc3575b600a9054101580610ca5575b610c33578380f35b3384526001835281842060058552835260ff8285205416610b5e57506000805160206115728339815191529033845260018352808420600585528352808420600160ff19825416179055338452838352600381852001610c938154611363565b90555191600583523392a23880808380f35b503384526001835281842060058552835260ff828520541615610c2b565b33855260018452828520828652845260ff8386205416610d3457600a90338652600185528386208387528552838620600160ff19825416179055338652858552600384872001610d138154611363565b90558351838152600080516020611572833981519152863392a29050610c1f565b5082606492519162461bcd60e51b8352820152601c60248201526000805160206115928339815191526044820152fd5b5060018452828520828652845260ff838620541615610c1a565b91905034610470578260031936011261047057338352602091838352610da961021a8386205461121c565b3384528383526014600a83862001610dc18154611363565b809155101580610e46575b610dd4578380f35b3384526001835281842060088552835260ff8285205416610b5e57506000805160206115728339815191529033845260018352808420600885528352808420600160ff19825416179055338452838352600381852001610e348154611363565b90555191600883523392a23880808380f35b503384526001835281842060088552835260ff828520541615610dcc565b611102565b8390346101ec5760203660031901126101ec57610e8690356113fb565b80f35b5050346101ec5760203660031901126101ec57602091610ec29082906001600160a01b03610eb56110d0565b168152808552205461121c565b15159051908152f35b8383346101ec57610edb366110b5565b9190913384526020848152610ef561021a8487205461121c565b33855284815260078386200195610f0c8754611363565b9687815560018098148061107e575b611010575b600a9054101580610ff3575b610f5f575b50907f50c83292cbed2e0e82c326c455870ed0cfe292eb185581159265e76147d205ea92916102bf826113fb565b33865286825283862060028752825260ff848720541661059c57507f50c83292cbed2e0e82c326c455870ed0cfe292eb185581159265e76147d205ea9394953387528082528387206002885282528387209060ff19825416179055338652858152600383872001610fd08154611363565b9055825160028152600080516020611572833981519152823392a2859493610f31565b5033865286825283862060028752825260ff848720541615610f2c565b338752878352848720888852835260ff858820541661065957600a9033885288845285882089895284528588208960ff1982541617905533885287845260038689200161105d8154611363565b90558551898152600080516020611572833981519152853392a29050610f20565b50338752878352848720888852835260ff858820541615610f1b565b8490346101ec57816003193601126101ec5780600760209252f35b60409060031901126110cb576004359060243590565b600080fd5b600435906001600160a01b03821682036110cb57565b346110cb5760003660031901126110cb57602060405160028152f35b346110cb5760003660031901126110cb57602060405160018152f35b346110cb5760003660031901126110cb57602060405160068152f35b346110cb5760003660031901126110cb57602060405160038152f35b346110cb5760003660031901126110cb57602060405160048152f35b9794919a9895929b999693909b610160808a528d5180918b015260005b8181106111e957506101409a9b9c9d5061018090600082828d010152601f80199101168a01019c60208a015260408901526060880152608087015260a086015260c085015260e08401526101008301526101208201520152565b8e81016020908101518c830161018001520161118f565b346110cb5760003660031901126110cb57602060405160058152f35b90600182811c9216801561124c575b602083101461123657565b634e487b7160e01b600052602260045260246000fd5b91607f169161122b565b906040519160009080546112698161121c565b9081865260209260019160018116908160001461130357506001146112c7575b50505050829003601f01601f1916820167ffffffffffffffff8111838210176112b157604052565b634e487b7160e01b600052604160045260246000fd5b909293506000528260002091836000935b8385106112ef575050505083010138808080611289565b8054888601830152930192849082016112d8565b60ff191688860152505050151560051b840101905038808080611289565b1561132857565b60405162461bcd60e51b8152602060048201526013602482015272155cd95c881b9bdd081c9959da5cdd195c9959606a1b6044820152606490fd5b60001981146113725760010190565b634e487b7160e01b600052601160045260246000fd5b60018060a01b0316600052600060205260406000206001810154916002820154916003810154916004820154916005810154916006820154916007810154916008820154916009810154916113e1600a83015492611256565b9a99989796959493929190565b9190820391821161137257565b60003381528060205261141461021a604083205461121c565b33815280602052604081209160019160018401906002825495019384549386018087116115385783558391600019830183811161155d5760c89060c881029080820460c81490151715611538576070018060701161153857929190825b6114fa575b50505050835481116114c5575b50549154916040519384526020840152604083015260608201527feed15c2cd934e6d55418ac8f7b18b87e1e1264908b61d15df66744a89f47b3fe60803392a2565b8084556040519081527f91e51c29e7e87a74ad3b8ccba98538970f50a4309242735467f41e27c6b0fbac60203392a238611483565b9091929385548581101580611553575b1561154c579061151d86611524936113ee565b8755611363565b938181018091116115385792919082611471565b634e487b7160e01b83526011600452602483fd5b5093611476565b50600a821061150a565b634e487b7160e01b82526011600452602482fdfeecfcf3a608fefe3b6ea7d5efc965cfc3ad0043767f8618944c737253329892d7416368696576656d656e7420616c726561647920756e6c6f636b656400000000a26469706673582212205d2471013aaa13fbf3f3d3a564d979418798dec8123e9731d5be981c696930f064736f6c63430008180033",
  "linkReferences": {},
  "deployedLinkReferences": {}
}